:020000040800F2
:10000000000001205D7F00089DD70008A9D70008E7
:10001000B1D70008B9D70008C1D700080000000018
:10002000000000000000000000000000D5D700081C
:10003000C9D7000800000000E1D70008D19A0008E5
:10004000EDD70008F9D7000805D8000811D8000836
:100050001DD8000829D80008A1C6000801C700085B
:1000600061C700086DC7000879C7000835D80008C7
:1000700041D800084DD8000859D8000865D80008B4
:1000800071D800087DD8000889D8000895D80008E4
:10009000A1D80008ADD80008B9D8000885C7000865
:1000A000C5D80008D1D80008DDD80008E9D8000874
:1000B00029A10008B5A200086DD9000899D9000847
:1000C00049E000089DE00008A9E00008B5E000084C
:1000D000C1E00008ADB0000825EC000851ED0008B3
:1000E000D5C80008CDE00008D9E00008E5E0000828
:1000F000F1E00008FDE0000809E1000815E1000852
:1001000021E100082DE1000839E1000845E100087F
:1001100051E100085DE1000869E1000875E10008AF
:1001200081E100088DE1000899E10008C1E20008C2
:1001300038B540F2FC05C2F200050446286808B153
:100140008369BBB145F6B013C0F601039C4219D0D8
:1001500045F6D013C0F601039C4219D045F6F013C2
:10016000C0F601039C4204BF2B68DC68A089C0F381
:10017000401038BD00F038F845F6B013C0F6010362
:100180009C42E5D12B685C68A089C0F3401038BD63
:100190002B689C68EAE700BF00207047002070478A
:1001A00042F61D11C0F6000100F03EBB70B5682597
:1001B0000E4605FB01F505F10C0100F00BFC0446B1
:1001C00048B100F10C03002146602A461846216020
:1001D000A36000F0A9FF204670BD00BF45F61023C4
:1001E000C0F601031868DBE72DE9F04F0546846986
:1001F00083B0002C78D140F2A1120123C0F6000296
:100200008361826241F2D149C0F8D84041F2F94895
:10021000C0F8DC4041F2355AC0F8E04041F25D5B85
:10022000019300F065F8C0F60009C0F60008C0F6BA
:10023000000AC0F6000B6860284600F059F8A86074
:10024000284600F055F86F6821460822E86004202F
:100250003C60B88107F15C007C60BC607C66FC811E
:100260003C617C61BC6100F05FFFAE68019B214690
:10027000082209203F62B08106F15C00F381C7F8D3
:100280002490C7F82880C7F82CA0C7F830B0346095
:100290007460B460746634617461B46100F044FFEA
:1002A000ED681223022036622146E8810822C6F852
:1002B000249005F15C00AB81C6F82880C6F82CA01C
:1002C000C6F830B02C606C60AC606C662C616C6100
:1002D000AC6100F029FF2D62C5F82490C5F8288094
:1002E000C5F82CA0C5F830B003B0BDE8F08F00BF52
:1002F00045F61023C0F6010370B506461D68AB69CC
:10030000002B29D0D8356B68AC68013B03D51FE0C2
:100310006834013B1CD4B4F90C20002AF8D1002524
:100320004FF0FF33656604F15C00E3812946012349
:100330002560A3810822A560656025616561A561CE
:1003400000F0F2FE6563A563A564E564204670BD18
:10035000286828B10546D6E72846FFF745FFD1E7CC
:1003600030460421FFF722FF28600028F2D10C2339
:1003700004463360EAE700BF704700BF704700BF24
:10038000704700BF704700BF40F2FC0340F2991174
:10039000C2F20003C0F60001186800F045BA00BFC1
:1003A00040F2FC0340F29D11C2F20003C0F60001CE
:1003B000186800F039BA00BFF0B583B00F46114697
:1003C00001AA064602F0ACFB0446054610B92846D1
:1003D00003B0F0BD3046FFF78BFF05460028F6D08E
:1003E00030463946019A4FF4DB7300F0FBFE0028DB
:1003F00021DBA4B241F2D14714F4807F41F2F941EC
:1004000041F2355241F25D53C0F60007C0F60001DB
:10041000C0F60002C0F60003E881AC812D626F6275
:10042000A962EA622B63D2D0304629460022022319
:1004300000F038F8CBE7FFF79FFF0023AB810025E2
:10044000FFF79CFFC3E700BF40F2FC030A46C2F27D
:10045000000301461868AFE70EB440F2FC0310B584
:1004600083B005ACC2F20003014654F8042B1868AF
:100470002346019401F094F903B0BDE8104003B0A5
:10048000704700BF0CB410B582B004AC54F8042B14
:100490002346019401F084F902B0BDE8104002B097
:1004A000704700BF2DE9F04F0C4691B090461E46B4
:1004B000054618B18369002B00F0988045F6B0130B
:1004C000C0F601039C4208BF6C680ED045F6D013FD
:1004D000C0F601039C4208BFAC6806D045F6F01395
:1004E000C0F601039C4208BFEC68FFF745FFA389F3
:1004F00003F48473B3F5847F00F0F880E76A002F7B
:1005000000F06981012E52D0022E09D046B1162387
:100510002B60FFF733FF4FF0FF3011B0BDE8F08FD5
:100520004FF0000A2369D146002B00F03581A089E5
:1005300040F61A0382B202EA03035BB912F4806F39
:100540006FD141F23553C0F600039F4251D040F4C1
:100550000060A0812846214602F0E8F9002840F01A
:1005600022812846216A42463346B847B0F1FF3F10
:1005700000F01981616B41B104F14403994202D04A
:10058000284602F041FC0023636320690025A3890B
:1005900029460822656023F402632060A38104F1E8
:1005A0005C0000F0C1FDFFF7E9FE2846B5E72846EC
:1005B000214602F0BBF9A38913F4805218BFD4F886
:1005C000549000F0DA8013F0040F6ED113F0080F8E
:1005D00000F0D1802268002A00F0CD802369D21A71
:1005E0009144C8444FF0010A00269DE7FFF7FCFD47
:1005F00064E7B4F90E100029A9DB284601AA00F02F
:10060000FDF8002840F0CD80029B03F47043B3F561
:10061000004F40F0C680A3894FF4806222651343E7
:10062000A381002E4CD1C346BAF1000F57D1A38944
:1006300013F4805F18BF606D00F0BA806268616B70
:10064000C2EB0009002900F0BE80D4F840E0CEEBF8
:100650000909E36B914420691B1AC3EB0909734430
:10066000CB4548DB09EB0302934544D2C9EB0B09A8
:100670004844C9EB03032060636041B104F14403C3
:10068000994202D0284602F0BFFB00236363A3898E
:100690000021082204F15C0023F02003A38100F074
:1006A00043FDFFF76BFE002037E76268636BC2EB28
:1006B0000909002B5FD0226C2369C2EB090990E77E
:1006C0002846B4F90E1001AA00F098F800287FF42B
:1006D00041AF059B08EB030BBAF1000FA7D0616B8C
:1006E00000296FD06268D4F840E0B2E7284621467E
:1006F00002F01CF902E7226D00232846216AC2F1AC
:1007000000090BEA09094A46B847B0F1FF3F3FF438
:1007100021AF23690022616B6260236041B104F163
:100720004403994202D0284602F06EFB0023636323
:10073000A389BBEB090B23F02003A38111D028462A
:10074000214600F0EFFD00287FF404AF63689B456D
:100750003FF600AF2268CBEB0303636002EB0B03B1
:1007600023600021082204F15C0000F0DDFCFFF7AB
:1007700005FE0020D1E6236933E733462846216A87
:10078000B847B0F1FF3F814618BFA3897FF41BAF84
:10079000FFF7F4FD4846C0E62846214600F094F8ED
:1007A000C5E6A089D3E6FFF7E9FD4FF0FF30B4E6D8
:1007B00001232846216A5246B847B0F1FF3F7FF433
:1007C0003DAFC7E662682368002120691B1AC3EBAE
:1007D0000909D31844E71D232B60FFF7CFFD4FF025
:1007E000FF309AE630B440F2FC04C2F200040D4639
:1007F000134601462A46206830BC53E638B541F618
:10080000A034C2F2000405460846114600232360C6
:1008100014F056FBB0F1FF3F00D038BD2368002B29
:10082000FBD02B6038BD00BF2DE9F041064688465D
:10083000FFF7A2FDD83608BF374616D000277568E7
:10084000B468013D0ED4B4F90C303BB1B4F90E30AC
:100850002046B3F1FF3F01D0C0470743013D04F1FB
:100860006804F0D53668002EE9D1FFF787FD3846D9
:10087000BDE8F0812DE9F84307468946FFF77CFD86
:1008800017F1D80608BFB04619D04FF000087568B8
:10089000B468013D10D4B4F90C304BB1B4F90E304A
:1008A00021463846B3F1FF3F02D0C84748EA000866
:1008B000013D04F16804EED53668002EE7D1FFF75C
:1008C0005DFD4046BDE8F8838B89F0B50C469AB2D1
:1008D00091B012F0020F05463BD1B1F90E1000297C
:1008E00018DB01AAFFF78AFF002811DB029B03F443
:1008F0007043A3F50052574247EB0207B3F5004F90
:100900003AD0A3894FF4806643F40063A3810BE0DF
:10091000A3899AB212F0800F43F4006314BF4026FB
:100920004FF480660027A3812846314600F052F834
:10093000002831D0A28940F2A113C0F60003AB62B7
:1009400042F080032060A3812061666147B911B045
:10095000F0BD01F147030B600B6101234B61F6E72A
:100960002846B4F90E1002F01BFB0028EFD0A38933
:1009700043F00103A381EAE741F23553E26AC0F68E
:1009800000039A42BDD1A2894FF480631E462365BD
:1009900042EA0303A381C7E7A38913F4007FD6D1FA
:1009A00004F1470243F002032260A3810123226184
:1009B0006361CCE740F2FC030146C2F20003186811
:1009C00000F008B840F2FC030146C2F200031868C8
:1009D00002F01ABA2DE9F04F01F10B04162C83B086
:1009E000064631D924F00704E30F8C422CBF194688
:1009F00043F00101002930D1304600F0EFFBB4F59F
:100A0000FC7F2FD24FEAD40C40F2F015C2F2000561
:100A100005EBCC022F46D368934200F02D825C6830
:100A200003F10808DA68304624F0030499681B19BA
:100A30005C68CA6044F0010491605C6000F0D0FB27
:100A4000404603B0BDE8F08F002310248C422CBF39
:100A5000194643F001010029CED00C234FF00008C5
:100A60003360EDE75FEA542C04BF4FEAD40C4FEA41
:100A7000CC0040F0868040F2F015C2F20005281844
:100A80002F46C368984206D10DE0002980F2798193
:100A9000DB68984207D05A6822F00302111B0F2925
:100AA000F3DD0CF1FF3C0CF1010CBD4A93689A4256
:100AB00008BF786824D0586820F00300011B0F2974
:100AC00000F3C0810029D260926080F29480B0F57A
:100AD000007F80F07781C0084FF0010ED7F80480C6
:100AE00007EBC00180100EFA00F0D960D1F808E0E1
:100AF00040EA08007860C3F808E0CEF80C308B605C
:100B00004FF0010E4FEAAC030EFA03FE86457DD886
:100B100010EA0E0F08D12CF0030C4FEA4E0E0CF128
:100B2000040C10EA0E0FF8D007EBCC0AE146D046D1
:100B3000D8F80C00804507D196E1002B80F2A68101
:100B4000C068804500F09081416821F003010B1BD3
:100B50000F2BF2DD8046C568011944F0010E58F8EC
:100B6000087F43F00104C0F804E030464C60FD60AB
:100B7000AF60D1609160CA608A60CB5000F030FBFA
:100B80005EE7BCF1040F9EBF4FEA941C0CF1380CD9
:100B90004FEACC007FF66FAFBCF1140F9CBF0CF195
:100BA0005B0C4FEACC007FF666AFBCF1540F9EBFE2
:100BB0004FEA143C0CF16E0C4FEACC007FF65BAFB1
:100BC000BCF5AA7F9EBF4FEAD43C0CF1770C4FEAEC
:100BD000CC007FF650AF40F254539C4595BF4FEA8E
:100BE000944C4FF47C700CF17C0C4FF07E0C98BF51
:100BF0004FEACC003FE71A1803F108083046536863
:100C000043F00103536000F0EBFA19E7D7F80880CE
:100C1000D8F8043023F003094C45C4EB090294BF13
:100C2000002301230F2AD8BF43F00103002B00F05B
:100C3000B98040F6B84AD5F80834C2F2000A304606
:100C4000B3F1FF3FDAF8002002F1100BA3441FBFFD
:100C50000BF57E6B0BF11F0B2BF47E6B2BF01F0B38
:100C6000594600F021FCB0F1FF3F034600F0188127
:100C700008EB0901814200F21081DAF80420814278
:100C80005A44CAF8042000F03E81D5F808E440F246
:100C9000F015C2F20005BEF1FF3F17BF8218C5F87C
:100CA0000804C1EB0201CAF8041010F0070517BFD1
:100CB000C5F108054FF48055431905F5805503EB40
:100CC0000B02304601931205120DAD1A294600F0B1
:100CD000EBFB019BB0F1FF3F00F02C81C11A4919D9
:100CE00041F00101DAF80420B84540F6B84BBB608A
:100CF0002A44C2F2000B5960CAF8042017D0B9F197
:100D00000F0F40F2E180A9F10C03D8F8045023F052
:100D10000703052008EB03010F2B05F0010543EA4B
:100D20000505C8F804504860886000F2FB80DAF8D6
:100D30002C1040F6B843C2F200038A42DAF83010B1
:100D400088BFDA6240F6B8438A42C2F2000340F23A
:100D5000A780D7F808801A63D8F8043023F003037B
:100D60009C42C4EB030294BF002301230F2AD8BF87
:100D700043F00103B3B130464FF0000800F030FA01
:100D80005EE69A18D9689C6803F1080855683046F1
:100D900045F00103E1608C60536000F021FA4FE6FA
:100DA000F801002008EB040342F0010244F00104C2
:100DB0003046C8F8044008F108085A60BB6000F0EB
:100DC0000FFA3DE6410A04299CBF4FEA901E0EF13E
:100DD000380E1DD9142998BF01F15B0E18D954297A
:100DE0009CBF4FEA103E0EF16E0E11D9B1F5AA7FED
:100DF0009CBF4FEAD03E0EF1770E09D940F2545E07
:100E0000714596BF4FEA904E4FF07E0E0EF17C0E6C
:100E100007EBCE08D8F80810414503D147E08968B0
:100E2000884505D0D1F804E02EF0030E7045F6D3C6
:100E3000D1F80CE0C3F80CE099607868CB60CEF88C
:100E400008305DE61D1941F00107D56044F001044A
:100E5000956030465C6003F10808EA60AA606F6044
:100E6000695000F0BDF9EBE509F1010919F0030F34
:100E70002FD008F108085BE603F108025B699A428B
:100E800008BF0CF1020C3FF410AEC8E580464318D1
:100E9000C268304658F8081FCAE5B8453FF4EDAEC1
:100EA000D7F80880D8F8043023F0030358E74FF050
:100EB0000109D7F804804FEAAE008E4609FA00F027
:100EC00048EA00007860B5E7984601225A6000239E
:100ED00046E751461CF0030F0B460CF1FF3C2CD0AB
:100EE00053F808199942F5D07B684FEA4E0E9E459B
:100EF0003FF68CAEBEF1000F3FF488AE1EEA030F42
:100F000020D0CC4610E64FEA015E4FEA1E5EBEF1ED
:100F1000000F7FF4BAAEBB680BEB090141F0010191
:100F2000596004E7304608F1080101F06DFFDBF875
:100F30000420FCE601210025D4E67B6823EA0E03A9
:100F40007B60D1E74FEA4E0E09F10409D6E700BFF6
:100F500010F0030F034670B4C9B210D002B3037887
:100F60008B421ED0013A013005E0CAB110F8014BA6
:100F7000013A8C4217D010F0030F0346F5D1032A33
:100F800013D86AB1187888420DD0013A5C1C04E08D
:100F900014F8015B013A8D4203D02046002AF7D1B4
:100FA000104670BC70471846FBE741EA012646EA46
:100FB0000646184653F8044B86EA0404A4F10135AA
:100FC00025EA040414F0803F03D1043A1846032AAA
:100FD000EFD80346D5E700BF032A2DE9F00109D871
:100FE0002AB10023CC5CC45401339342FAD1BDE84A
:100FF000F00170470B468218014603E02478013364
:1010000001F8014B11F0030F1C46F7D113F0030553
:101010005DD06E42C5F1040CED009B594FEACC0C3B
:1010200008E00434A7593B4607FA0CF748EA0707DB
:1010300041F8047B571A23FA05F8032FF1DC03E08B
:1010400014F8013B01F8013B8A42F9D8CFE753F885
:10105000404C41F8404C53F83C4C41F83C4C53F860
:10106000384C41F8384C53F8344C41F8344C53F870
:10107000304C41F8304C53F82C4C41F82C4C53F880
:10108000284C41F8284C53F8244C41F8244C53F890
:10109000204C41F8204C53F81C4C41F81C4C53F8A0
:1010A000184C41F8184C53F8144C41F8144C53F8B0
:1010B000104C41F8104C53F80C4C41F80C4C53F8C0
:1010C000084C41F8084C53F8044C41F8044C561AAB
:1010D0001D460C46403340313F2EB8DC2B460FE016
:1010E00053F8101C44F8101C53F80C1C44F80C1C4A
:1010F00053F8081C44F8081C53F8041C44F8041C5A
:10110000161B1D4610330F2E214604F11004E7DC98
:101110002B4602E0246841F8044B551A1C46032D67
:1011200003F10403F6DC8FE7032AC9B270B408D8D0
:101130002AB10346121803F8011B9342FBD170BC7D
:1011400070478218044601E004F8011B14F0030FF5
:10115000FAD14FF0013303FB01F31FE044F8403CA8
:1011600044F83C3C44F8383C44F8343C44F8303CC7
:1011700044F82C3C44F8283C44F8243C44F8203CF7
:1011800044F81C3C44F8183C44F8143C44F8103C27
:1011900044F80C3C44F8083C44F8043C161B254633
:1011A00040343F2EDADC2C4607E044F8103C44F88B
:1011B0000C3C44F8083C44F8043C161B254610340B
:1011C0000F2EF2DC01E045F8043B541B032CFADC43
:1011D00001E005F8011B9542FBD3B0E7704700BF63
:1011E000704700BF38B541F6A034C2F2000405468E
:1011F000084611461A460023236013F057FEB0F14B
:10120000FF3F00D038BD2368002BFBD02B6038BDDA
:1012100070B540F2FC04C2F2000406462568AB6BD0
:101220001BB100221E615A6170BD1820FFF7C2FB7E
:1012300023684AF6CD3141F23422A86343F20E30DE
:101240009B6B18804EF26D6059804DF6EC619A8070
:101250000522D8800B20198100215A810022988113
:101260000120C3E904011E615A6170BD70B540F2EE
:10127000FC04C2F200042568AE6BDEB130694FF2A7
:101280002D44756947F62D71C5F65104C4F6954194
:101290000122002304FB00F401FB0544A0FB010133
:1012A0001218214443EB0103C6E9042323F0004153
:1012B000084670BD1820FFF77DFB246812A3D3E910
:1012C00000234FF22D41C5F65101A86343F20E30C1
:1012D000A66B41F234254AF6CD3430804EF26D6073
:1012E00074804DF6EC64B5800525F0800B203481C8
:1012F000012475810025B0810846C6E90445C6E988
:10130000042370BDAFF300802E7F954C2DF451580F
:10131000838903F00903092B01D00020704701F0F5
:10132000EBBB00BF38B50C46054610B18369002BF6
:101330005ED045F6B013C0F601039C4208BF6C684E
:101340000ED045F6D013C0F601039C4208BFAC682E
:1013500006D045F6F013C0F601039C4208BFEC68C6
:10136000A28993B213F4005F07D142F40052616E78
:10137000A28193B221F400516166002113F0200F85
:10138000616032D113F0040F1CD113F0100F54D050
:1013900013F0080F59D142F00402A2812369002BF7
:1013A00046D0A38913F0030F2DD123692846216A63
:1013B0001A46656A23606369A847002860601ADDE1
:1013C000002038BD616B0029E8D004F14403994244
:1013D00002D0284601F018FD236C00206063636092
:1013E000002BDBD0E36B236038BD4FF0FF3038BDFE
:1013F000FEF7FAFE9DE712D1A3894FF0FF3043F0CC
:101400002003A38138BD45F6102341F21131C0F607
:101410000103C0F600011868FFF706FAC5E7A389C3
:1014200000224FF0FF30626043F04003A38138BDDB
:1014300028462146FFF748FAB3E742F04002092365
:101440004FF0FF302B60A28138BD2846214601F0C5
:101450006DFA0028C9D1A289A06022F00802A0611B
:101460001204120C97E700BF0246404240EA020213
:1014700021F0004141EAD272C2F1FE4202F570024F
:10148000504240EA0202D017013070470246404203
:10149000104321F0004141EAD070C0F1FE4000F558
:1014A0007000C00F704700BF38B541F6A034C2F2DB
:1014B0000004054608460023236013F0DBFCB0F16E
:1014C000FF3F00D038BD2368002BFBD02B6038BD18
:1014D00010B50C46B1F90E1001F08CFE0028ABBF20
:1014E000636DA3891B1823F48053ACBF6365A3818C
:1014F00010BD00BF002070472DE9F0411D468B89CB
:101500000C460746164613F4807F06D00223B1F935
:101510000E10002201F0B6FDA38923F48053384653
:10152000A3813246B4F90E102B46BDE8F04101F01C
:1015300071B900BF10B50C46B1F90E1001F0A2FD53
:10154000A389B0F1FF3F15BF606523F4805343F4D6
:101550008053A38118BFA38110BD00BFB1F90E1045
:1015600001F06EB980EA010212F0030F3AD110F0D7
:10157000030220F0030021F0030150F804CB08BF60
:1015800051F8043B0DD082F003024FEAC2026FF023
:101590007F4323FA02F251F8043B4CEA020C43EA7F
:1015A000020300BFACF101329C4501BF22EA0C02EC
:1015B00012F0803F50F804CB51F8043BF2D04FEAD0
:1015C0000C604FEA1C2C012828BFB0EB036F08BF4A
:1015D0001B0AF4D003F0FF034FEA1060A0EB0300F6
:1015E000704700BF10F0030F0AD010F8012B11F85C
:1015F000013B012A28BF9A42F4D0A2EB03007047B6
:101600004DF8045D4DF8044D4FF0010242EA02220C
:1016100042EA024201F0030C21F0030150F8044BAE
:1016200051F8045BBCF1020F26D04BD824F07F4C5C
:10163000BCEB152FA4EB020323EA04030DD113EA3C
:10164000C21308BF51F8045B0AD18CEA040CBCEB4E
:10165000056F0CD150F8044BE8E74FEA15255CE024
:1016600033F07F4352D10D784FEA146C55E04FEAC6
:10167000146C05F0FF0550E04FEA044CA4EB0203A4
:101680004FEA1C4C23EA0403BCEB154F17D113EAB5
:10169000C21308BF51F8045B07D18CEA040CBCEB01
:1016A000054F08D150F8044BE6E71B042ED10D88F6
:1016B0004FEA144C31E04FEA05454FEA144C4FEA2B
:1016C00015452AE004F0FF0CBCEB156FA4EB0203F8
:1016D00023EA04030DD113EAC21308BF51F8045BD7
:1016E0000AD18CEA040CBCEB052F0AD150F8044B4C
:1016F000E8E74FEA156510E014F0FF0F06D051F847
:10170000045B4FEA142C25F07F4506E04FF0000003
:101710005DF8044B5DF8045B70470CF0FF0205F0C8
:10172000FF00012828BF904204BF4FEA1C2C2D0A5D
:10173000F3D0A2EB00005DF8044B5DF8045B70474A
:1017400020F0030110F00300C0F1000051F8043B49
:1017500000F1040C4FEACC0C6FF000021CBF22FA1F
:101760000CF213434FF0010C4CEA0C2C4CEA0C4CDD
:10177000A3EB0C0222EA030212EACC1204BF51F8D6
:10178000043B0430F4D013F0FF0F1FBF013013F4FB
:101790007F4F013013F47F0F18BF0130704700BF37
:1017A0002DE9F04FADF52F7D0C46174680469B4640
:1017B000FEF7E2FDA38944F2157113F4005FC0F651
:1017C000000102BF43F40053A381626E0B9104BF7A
:1017D00022F400536366002065AA05460332069092
:1017E0000A90079004923A78AD923AB340F20066BC
:1017F0000137C2F200063368991891F801A01AF077
:10180000080A22D063680DE0236831685A1C1B78EF
:10181000CB185B7813F0080FE5D0636801352260C0
:10182000013B6360002BEFDC40462146FFF77AFD69
:101830000028E9D03A78AD92002AD7D1FEF79EFD74
:1018400007980DF52F7DBDE8F08F252A10D063682D
:10185000002B40F30B81236817F8012C1978914273
:10186000ECD16268013301352360531E6360BAE72F
:101870003A78D1460A210137782A00F215850FF20D
:10188000080C5CF822F000BFCF220008A922000853
:10189000A9220008A9220008A9220008A9220008FC
:1018A000A9220008A9220008A9220008A9220008EC
:1018B000A9220008A9220008A9220008A9220008DC
:1018C000A9220008A9220008A9220008A9220008CC
:1018D000A9220008A9220008A9220008A9220008BC
:1018E000A9220008A9220008A9220008A9220008AC
:1018F000A9220008A9220008A9220008A92200089C
:10190000A9220008A9220008A9220008A92200088B
:10191000A9220008A9220008A92200084F180008DF
:10192000A9220008A9220008A9220008A92200086B
:10193000DD220008A9220008A9220008A922000827
:10194000A9220008A9220008232200082322000857
:101950002322000823220008232200082322000853
:101960002322000823220008232200082322000843
:10197000A9220008A9220008A9220008A92200081B
:10198000A9220008A9220008A9220008A92200080B
:10199000A9220008A9220008991A00083322000889
:1019A000A922000833220008A9220008A922000861
:1019B000A9220008A922000839220008A92200084B
:1019C000A922000843220008A9220008A922000831
:1019D000A9220008A9220008A9220008A9220008BB
:1019E000A9220008A92200085B220008A9220008F9
:1019F000A922000873220008A9220008A9220008D1
:101A0000A9220008A9220008A9220008A92200088A
:101A1000A92200088B2200089D1A00083322000822
:101A2000332200083322000897210008A121000872
:101A3000A9220008A9220008B9210008A92200084B
:101A4000CF2100080F220008E7220008A922000881
:101A5000A922000801230008A922000895220008F5
:101A6000A9220008A92200085B220008404621465E
:101A7000FFF758FC00283FF4EEAEFEF77FFC079915
:101A8000002900F06284A38903F04003002B18BFF3
:101A90004FF0FF310791D3E64AF0010A44F2C9330F
:101AA0000A20C0F6000303210A900693059163689B
:101AB000002B40F3F6821AF0400F17D123683168EB
:101AC0001A7801338A18527812F0080F0ED0626823
:101AD000013A6260002AC8BF236012DD01351A781E
:101AE00001338A18527812F0080FF0D1059A531E6C
:101AF000032B00F29C81DFE813F0D80083000E0076
:101B0000210140462146FFF70DFC0028B5D1316880
:101B100001352368E3E709F1FF33B3F5AE7F00F247
:101B2000348300230DF1440C45F61422CDF824C073
:101B3000C0F60102CDF830C06646AC460A9D089753
:101B40004AF4586A1F465B46934600200590D4F835
:101B500000E09EF80000A0F12B014D2900F2C382A5
:101B6000DFE811F00803C1020803C102C102F1025B
:101B70000E030E030E030E030E030E030E03EA0202
:101B8000EA02C102C102C102C102C102C102C10214
:101B9000E502E502E502E502E502E502C102C10255
:101BA000C102C102C102C102C102C102C102C1021D
:101BB000C102C102C102C102C102C102C102A70227
:101BC000C102C102C102C102C102C102C102C102FD
:101BD000E502E502E502E502E502E502C102C10215
:101BE000C102C102C102C102C102C102C102C102DD
:101BF000C102C102C102C102C102C102C102A702E7
:101C0000B9F1000F08BF4FF0FF391AF0010340F09F
:101C10000B841AF0100F1EBF9A463168236830D12A
:101C2000DBF800A00BF104032268D346117830687A
:101C30004118497811F0080F40F0E78361680139D5
:101C4000616012F8011BB9F101090BF8011B226058
:101C500000F0DB8361680029E8DC404621460293FE
:101C6000FFF760FB029B002840F0CF832268DDE78E
:101C700040462146FFF756FB002840F0D2833168EA
:101C800023681A7801338A18527812F0080F40F04E
:101C9000C88362680AF1010A2360013AD145626093
:101CA00000F0BF83002AECDCE2E7B9F1000F08BFC7
:101CB0004FF0FF391AF0100F02BFDBF80060236805
:101CC000B24625D0236800261A780DF5D27C013360
:101CD0001CF80220002A00F082846268013623602A
:101CE000013AB145626000F0C280002AECDC404657
:101CF0002146FFF717FB002840F0B9802368E3E78F
:101D000040462146FFF70EFB002840F06C83236815
:101D10001A7869A8825C002A00F068836268013A38
:101D2000626013F8012BB9F101090AF8012B236055
:101D300000F05C836268002AEADCE1E709F1FF3326
:101D400011A8B3F5AE7F414689BFA9F5AE7C4FF02F
:101D5000000C0CF1FF3C40F25D1900230897CDF810
:101D600030B04AF4F06A06461F46E34698460A46F3
:101D700009900D930F9305930E93D4F800E09EF80D
:101D80000000A0F12B014E2900F28D80DFE811F058
:101D90005E018B005E0165018B00710075007500AE
:101DA00075007500750075007500750075008B0075
:101DB0008B008B008B008B008B008B0037018B001E
:101DC0008B008B0043013E018B008B001D018B00BB
:101DD0008B008B008B0005018B008B008B008B0030
:101DE0008B0032018B008B008B008B0001018B007C
:101DF0008B008B008B008B008B008B0037018B00DE
:101E00008B008B0043013E018B008B001D018B007A
:101E10008B008B008B0005018B008B008B008B00EF
:101E20008B0032018B008B008B008B000101B9F11C
:101E3000000F08BF4FF001091AF0010640F05B8364
:101E40001AF0100F00F091826368404621464B451E
:101E500080F2CE832268F618C3EB0909D3182360F9
:101E6000FFF760FA0028EFD0002E3FF406AEAD1960
:101E7000B9E41AF4807F40F05C8207EB080191B965
:101E80002AF4C07A06F8010B6168013501396160F6
:101E90000029C4BF0EF10101216040F3F680B9F1C1
:101EA00001097FF46AAF0593114605983B46424607
:101EB000089FDDF830B08846002840F02582013ABE
:101EC000012A40F24B825A1E062A20D8022B40F2E9
:101ED0006E82032B1BD0B446089699462E46654663
:101EE0000C9309F1FF39404615F8011D22465FFAAF
:101EF00089F902F0F7FDB9F1030FF2D80C9B3546D2
:101F0000089E013D043BDBB2DA43ED1AB6181AF421
:101F1000807F16D01AF4806F40F03E8216F8011DC3
:101F2000013DB1F1650318BF012345290CBF002312
:101F300003F00103002B40F09A834046224602F052
:101F4000D1FD1AF010027FF44EAC0AF4C063327077
:101F5000B3F5806F00F0AB830F9B002B40F08F83B5
:101F600000224046099901F0FBF91AF0010F0246E0
:101F70000B4603D11AF0020F00F0C583DBF8001006
:101F80000BF10406C1E900230798B346013007901E
:101F900029E4072F87D1082774E7D8F1010138BF5A
:101FA0000021002B14BF002101F00101002900F0E5
:101FB000AE810AF4E061B1F5E06F40F0AC812AF443
:101FC000F06A4FF0010800235CE7D7F1010138BF48
:101FD0000021002B14BF002101F00101002944D091
:101FE0000AF4E061B1F5E06F3FD12AF4F06A01270D
:101FF000002347E7062F7FF456AF072742E7B8F1E3
:10200000010F7FF450AF4FF002083BE7022F7FF43F
:102010004AAF032736E70AF4A061B1F5806F06D016
:10202000191E18BF012111EA9A213FF43CAF1AF49E
:10203000007F2AF4F06A08BF0D964AF4C07A02BF06
:102040000E99C1EB03030F9300231BE71AF0800FD7
:102050003FF429AF2AF0800A14E71AF4007F3FF416
:1020600022AF2AF4207A0E930CE7A7F1030CDCF1DF
:10207000000141EB0C01052F08BF41F001010029CF
:102080003FF411AF0137FFB2FCE610462146039240
:102090000293FFF747F9039A029B00283FF4FFAE33
:1020A00001E740462146FFF73DF900283FF403AD24
:1020B000E3E40AF4C061B1F5007F14D12AF4007A98
:1020C00010254AF4A06A06F8010B616801396160C5
:1020D0000029C4BF0EF10101216040F37681B9F1FE
:1020E00001097FF434AD1AF4807F0A950C96654699
:1020F000089F9B460ED009998E4206D916F8011DFD
:10210000404622460C9602F0EDFC0C9A099B9A423E
:102110003FF494AB1AF0100200F0BA81099B059EBF
:10212000ED1ADDF830C0AD196544FFF75CBB0A2D30
:10213000D9DD2AF4386AC6E73BF91550082DD2DDFF
:102140002AF4386ABFE71AF4006FBCD015B94AF414
:10215000007A08351AF4806F18BF2AF4B06AB2D139
:102160002AF4607A17B1013F09F10109059801309D
:102170000590AAE71AF0800FB5D02AF0800AA2E7EE
:102180003BF915502AF4386A9DE7A9F5AE7340F281
:102190005D19013BC6E44AF0040A3A78FFF76BBBCD
:1021A00044F2C9320023C0F600024FF0030C0A9338
:1021B0000692CDF814C07AE43A786C2A0ABF4AF045
:1021C000020A4AF0010A17F8012FFFF754BB1AF070
:1021D000100F7FF408AB1AF0040F1EBFDBF80030BD
:1021E0000BF1040B1D807FF4FEAA1AF0010F40F0E2
:1021F000E5801AF0020F00F0E180DBF800102A46BB
:10220000EB170BF1040BC1E90023FFF7ECBA44F222
:1022100015700821C0F6000003220A91069005926D
:1022200045E401FB09F9A9F1300991443A78FFF737
:1022300022BB042205923AE44AF0020A3A78FFF7F8
:102240001ABB44F215700821C0F6000003224AF0C0
:10225000010A06900A91059229E444F215731020B0
:10226000C0F6000303214AF4007A06930A90059110
:102270001DE4394669A801F01BF84AF0400A4FF006
:10228000010CCDF814C0074611E400204AF0400AC2
:1022900005900CE444F215730A20C0F600030321F4
:1022A0000A900693059102E49B1844F2C930C0F6E7
:1022B00000005B78069003F00303012B08BF4AF08F
:1022C000010A0A2103220A910592FFF7F0BBFEF7EB
:1022D00055F84FF0FF360796FFF7B2BA4AF0100AEA
:1022E0003A78FFF7C8BA44F215711022C0F600011F
:1022F00003234AF4087A06910A920593FFF7D7BBA5
:1023000002230593FFF7D3BB2AF4807AD7E5B8F10F
:10231000020F00F06A81A7F1010CDCF1000141EB32
:102320000C01042F08BF41F0010100297FF4AAAE7F
:10233000B9E52AF0800A0133BBF1000F3FF4A4ADE8
:102340000BF1FF3B09F101099EE54FF0FF320792C7
:10235000FFF776BA16F8011D02F0C4FB0999404652
:102360002246B142F6D3FFF769BA00944046DBF843
:10237000001001224B4600F009FC00283FF47DAB21
:10238000079B0BF1040B451901330793FFF72BBA99
:1023900016F8011D02F0A6FB099F40462246B742EF
:1023A000F6D3FFF74BBA16F8011D02F09BFB099B11
:1023B00040462246B342F6D3FFF740BADBF800307E
:1023C0000BF1040B1D60FFF70EBA40462146029345
:1023D000CDF80CC0FEF7A6FF029BDDF80CC000286C
:1023E0003FF47DAE7FE656453FF447ABBAEB0606B9
:1023F0003FF424AA079900230BF1040BAD19013116
:1024000007918AF80030FFF7EEB900228BF8002020
:10241000079ECAEB05055D449B4601360796FFF70C
:10242000E2B95544FFF7DFB900210822A9A8FEF759
:102430007BFE1AF010024FF0000A12BFADA8DBF8C5
:1024400000300BF1040B099208970CBF059305901F
:10245000236832681B78D3185B7803F00803D3F144
:10246000010338BF0023B9F1000F0CBF002303F0B4
:102470000103002B40F0C780089F099900297FF4D1
:10248000B2A9059A079B116001330793FFF7ABB917
:102490000C9E4046327009990A9B069EB0471AF07E
:1024A000200F1FD11AF0040F1EBFDBF800300BF114
:1024B000040B18801BD11AF0010213D11AF0020F7D
:1024C00010D006980B99884200F034814046099953
:1024D0000A9B02F037F8DBF800300BF1040B1860B0
:1024E000596004E0DBF800300BF1040B1860079A28
:1024F0000132079212E600210822ABA8FEF714FE73
:102500001AF0100005900DF1440A06BFDBF8003008
:102510000BF1040B0023CDF820B0DDF814B0002639
:102520000C954D460997994600F090FDB0423FF456
:10253000A4AA2368ABAFD4F804C04046494652462B
:1025400013F801EB0CF1FF3CC4F804C000970AF843
:1025500006E001362360334600F0AAFDB0F1FF3FEC
:102560003FF48BAA00282ED1BBF1000F01D1C9F88E
:1025700000B00C98013D80190C90BBF1000F2CD1DC
:1025800009F104095E466368002B0EDD002DCBD1F6
:102590000C9D099FDDF820B0059900297FF423A93F
:1025A000079A01320792FFF71EB940462146FEF70F
:1025B000B9FE0028EAD00C9D099FDDF820B0002E5E
:1025C000EAD0FFF75ABA10F1020FDCD00C98013DA7
:1025D00080190C90BBF1000FD2D00026D3E7002E5B
:1025E0003FF42CA9AD19FFF7FEB84FF0030849E4FA
:1025F00022684E44C9EB0303AD19636002EB090383
:102600002360FFF7F0B800F021FD50453FF435AAF4
:10261000236811AA67684046059913F801EB013F4A
:102620006760A9AF009702F80AE00AF1010A236087
:10263000534600F03DFDB0F1FF3F3FF41EAA0028D5
:102640003DD1DDF814C0CCF800000599086800F011
:10265000BBFC002847D1099F554409F1FF39824648
:10266000002F2FD10598BA46043005902AE0404645
:10267000224602F037FA013D16F8011D5DE40D9E79
:1026800040460A23711C01F09FFE0F99421A0D9BD0
:1026900045F6FC41049EC0F60101B34224BF0DF58E
:1026A000CB7CCDF834C00D9810F0A2FF58E405980B
:1026B0000E99421A3FF454AC52420D96E7E710F1DE
:1026C000020FC2D16368002B3FF7C2AE40462146DD
:1026D000FEF728FE00283FF4BBAE089FBAF1000FBA
:1026E0007FF4CBA9C9E6089FBAF1000F3FF4C5AE4D
:1026F0005646013E11AB40462246995D02F0F2F982
:10270000002EF6D1B9E6DBF800900BF10406039039
:10271000029100F085FD039A029B30B110461946E4
:1027200004F03AFDC9F800002EE400F0FDFDC9F800
:10273000000029E4404609990A9B02F0A9F8CAE67C
:1027400030B5044685B008B18569E5B145F6B010ED
:10275000C0F60100814208BF61680ED045F6D01076
:10276000C0F60100814208BFA16806D045F6F0100E
:10277000C0F60100814208BFE168204605B0BDE80F
:102780003040FFF70DB8039102920193FDF72CFD45
:10279000019B029A0399D9E730B440F2FC04C2F2DB
:1027A00000040D46134601462A46206830BCFEF759
:1027B000F7BF00BF2DE9F04140F2FC05C2F2000571
:1027C00004460F461646286808B18369EBB145F602
:1027D000B013C0F601039C4208BF44680ED045F612
:1027E000D013C0F601039C4208BF846806D045F6AA
:1027F000F013C0F601039C4208BFC46821463A4664
:102800003346BDE8F041FEF7CBBFFDF7EDFC28688D
:10281000DDE700BF38B541F6A034C2F2000405463A
:10282000084611461A46002323600FF0F9FFB0F165
:10283000FF3F00D038BD2368002BFBD02B6038BD94
:1028400038B541F6A034C2F200040546084600231C
:10285000236012F031FBB0F1FF3F00D038BD236898
:10286000002BFBD02B6038BD70B50C4605460E46DC
:10287000002948D0FDF780FD15B1AB69002B44D08D
:1028800045F6B013C0F601039C4208BF6C680ED039
:1028900045F6D013C0F601039C4208BFAC6806D0D1
:1028A00045F6F013C0F601039C4208BFEC68B4F98A
:1028B0000C6036B32846214600F038F8236B0646F4
:1028C0003BB12846216A984736EA200628BF4FF0D8
:1028D000FF36A38913F0800F1BD1616B41B104F166
:1028E0004403994202D0284600F08EFA0023636325
:1028F000A16C21B1284600F087FA0023A3640023CD
:10290000A381FDF73BFD304670BD2846FDF76CFC0A
:10291000B6E72846216900F077FADEE740F2FC03CB
:102920000146C2F2000318689EE700BF2DE9F0419E
:102930000C460E698046002E4AD018B18369002BE0
:1029400000F08E8045F6B013C0F601039C4208BF2C
:10295000D8F8044010D045F6D013C0F601039C42CD
:1029600008BFD8F8084007D045F6F013C0F60103B9
:102970009C4208BFD8F80C40A689002E28D033B25C
:1029800013F0080027D0266916B313F0030F25684B
:10299000266008BF6369C6EB050518BF0023002D3C
:1029A000A36002DC9DE0002D77DD32462B46A76A4E
:1029B0004046216AB8470028C0EB05050644F2DC12
:1029C000A3894FF0FF3043F04003A381BDE8F081BD
:1029D0003046BDE8F081626846F40063A381002AB6
:1029E0005EDDE66A002EF3D09BB2002213F480571E
:1029F000D8F80050C8F8002018BF626D33D013F02B
:102A0000040F05D06168636B521A0BB1236CD21AA4
:102A100000234046216AB047B0F1FF3F2FD0A38981
:102A20000021226923F4006361601B0422601B0CF7
:102A3000A38113F4805F03D0B0F1FF3F34D0606511
:102A4000616BC8F80050002934D004F14403994266
:102A500002D0404600F0D8F900206063BDE8F08164
:102A6000FDF7C2FB6EE73A4601234046216AB047B4
:102A7000B0F1FF3F024620D0A389E66ABFE7D8F84D
:102A80000030002BCBD01D2BC9D0162BC7D0A3896B
:102A900043F04003A381BDE8F0810020BDE8F08150
:102AA000226C002A9DDCF9E7D8F80030002BC7D152
:102AB0006065C5E70846BDE8F081D8F80030002B16
:102AC000DAD0A3F11D00414241EB0001162B14BFE7
:102AD0000B4641F001033BB1C8F800503846BDE851
:102AE000F0810020BDE8F081A389104643F0400347
:102AF000A381BDE8F08100BF30B140F2FC03014684
:102B0000C2F20003186811E745F6102342F62D11B2
:102B1000C0F60103C0F600011868FDF7ABBE00BFA8
:102B20000346087870B4722821D077281AD061281B
:102B300004D0002016221A6070BC70474FF4027552
:102B400001244FF484704B784BB12B2B18D08E7826
:102B50002B2E15D0622B0ED08B78622B0BD02C43F2
:102B60001460E9E74FF4C06501240820EBE7002575
:102B700004202C46E7E744F480342C431460DBE760
:102B800020F01C00022440F01000E3E72DE9F04F94
:102B900085B002FB03FA9346994680460E460E9C8A
:102BA000BAF1000F00F0A88018B18369002B00F083
:102BB000AF8045F6B013C0F601039C4208BFD8F8B9
:102BC000044010D045F6D013C0F601039C4208BF64
:102BD000D8F8084007D045F6F013C0F601039C4230
:102BE00008BFD8F80C40FDF7C7FBA3899AB212F4CE
:102BF000005F07D143F40052636EA28192B223F4C6
:102C0000005363666568002DA8BF2B4676DB12F083
:102C1000020F374608BF564650D0534528BF53468B
:102C200021681A4630460193FEF7D6F9019B616B85
:102C3000BAEB03022768D4F804E018BF0122002988
:102C40000CBF002002F00100FF18C3EB0E0EC3EB17
:102C50000A052760C4F804E0002869D004F14402A2
:102C6000914204D0404600F0CFF82768019B002233
:102C700062632269F61863690292039301E0002DF2
:102C800053D026614046656121462660FEF74AFB27
:102C9000029A636827602261ED1A039AF6180023EE
:102CA000636062610028EAD0FDF768FBC5EB0A00AB
:102CB000594603F041FB81461AE06568AE422A4658
:102CC000384628D92168761BFEF786F923684046E6
:102CD00021465B192360FEF725FB7F190028ECD005
:102CE000FDF74CFBC6EB0A00594603F025FB814675
:102CF000484605B0BDE8F08FD146F9E7002312F051
:102D0000020F374663601D4608BF5646D6D084E79B
:102D1000FDF76AFA4DE732462168FEF75DF9626811
:102D20002368921B62609E192660FDF727FBDFE790
:102D3000002A9ED1FDF722FBDAE700BFF0B540F292
:102D4000FC0483B0C2F2000407460E461546009309
:102D50002068394632462B46FFF718FF03B0F0BD16
:102D6000F8B540F2F014C2F200040F460546FEF733
:102D700035FAA3685E6826F0030606F57E630F3316
:102D8000DF1B3F0B013F3F03B7F5805F07DB0021EF
:102D90002846FEF789FBA3689B19984204D0284671
:102DA000FEF71EFA0020F8BD79422846FEF77CFBAC
:102DB000B0F1FF3F10D040F6BC43A168C2F200035F
:102DC000F61B284646F001061A684E60D71B1F60A6
:102DD000FEF706FA0120F8BD00212846FEF764FB45
:102DE000A368C21A0F2ADADD40F2F85440F6BC415B
:102DF000C2F20004C2F2000142F001025A602368EC
:102E0000C01A0860CBE700BF2DE9F0410D4604462B
:102E1000002958D0FEF7E2F9A5F1080240F2F010BF
:102E20005668C2F2000026F00103D0F808C0D1189D
:102E30008C454F6827F0030765D016F001064F60F8
:102E400031D00026CD196D6815F0010F06D1DB19C0
:102E5000002E4BD08D68C968E9608D6043F0010198
:102E6000D3505160D6B9B3F5007F2ED3590A042947
:102E70006BD89E093836F5004519A968A94203D1D7
:102E800069E089688D4204D0486820F003008342DD
:102E9000F7D3CB68D3609160CA609A602046BDE8E2
:102EA000F041FEF79DB955F8085C00F1080C521B83
:102EB0005B199568654546D0D2F80CC0C5F80CC0C2
:102EC000CCF80850BEE7BDE8F081DB080125466874
:102ED00000EBC3019B1015FA03F3D1608D6846EA3D
:102EE000030343609560EA608A60D7E78D682B4FE3
:102EF000BD42B0D1EA6043F00101AA60D56095609F
:102F00005160D350CAE716F0010F3B4407D155F882
:102F1000081C521A5B189568D168E9608D6040F210
:102F2000FC5143F00105C2F20001556082600A685D
:102F30009342B3D340F6B8432046C2F20003196867
:102F4000FFF70EFFAAE701267CE714290CD801F150
:102F50005B06F50090E701254768B6100B46B540C3
:102F600047EA0505456095E7542903D81E0B6E36E0
:102F7000F50081E7B1F5AA7F03D8DE0B7736F500BF
:102F80007AE740F25455A94203D89E0C7C36F500EE
:102F900072E74FF47C757E266EE700BFF8010020D3
:102FA00038B541F6A034C2F20004054608460023B5
:102FB000236011F08BFFB0F1FF3F00D038BD2368D4
:102FC000002BFBD02B6038BDFF289FBF40F2006371
:102FD000C2F200031B6818189ABF407800F008007E
:102FE0000020704710B514463AB145F6045110461A
:102FF000C0F60101FEF7B6FA20B945F6F840C0F672
:10300000010010BD45F6F8412046C0F60101FEF76B
:10301000A9FA20B945F6F840C0F6010010BD45F602
:10302000A0412046C0F60101FEF79CFA45F6F843A0
:10303000C0F6010300280CBF1846002010BD00BFD9
:1030400040F20460C2F20000704700BF40F2046327
:10305000C2F20003186A7047004870472806002033
:1030600000207047004870474806002040F2FC03EB
:103070000A46C2F2000301461868B3E700487047E9
:103080004806002038B541F6A034C2F200040546D7
:10309000084611461A460023236011F005FFB0F1DF
:1030A000FF3F00D038BD2368002BFBD02B6038BD1C
:1030B0002DE9F04383B014460546894698460A9E9A
:1030C000BAB140F28063C2F200031F68FFF7B8FF95
:1030D000019649462246434600902846B847B0F13B
:1030E000FF3F03D1002333608A232B6003B0BDE888
:1030F000F08340F28063C2F200031F68FFF7A0FF75
:1031000045F6A04201962146C0F601020123009037
:103110002846B847E3E700BF2DE9F0470D4682B0E7
:10312000814617461E46F9B140F2806340F2FC0426
:10313000C2F20003C2F20004D3F800A0D4F8008069
:10314000FFF77EFF019649462A463B4600904046DF
:10315000D047B0F1FF3F04D12368002232608A22B9
:103160001A6002B0BDE8F08740F2806340F2FC04D0
:10317000C2F20003C2F20004D3F800802768FFF710
:103180005FFF45F6A04201962946C0F601020123E1
:1031900000903846C047DCE782B071B110460AB9EA
:1031A00002B070476FF00100002BF9D013780B606C
:1031B0001078003818BF0120F2E701A9EEE700BF40
:1031C0002DE9F04140F28064C2F2000482B01E4654
:1031D0000546884617462468FFF732FF089B41469C
:1031E0003A460193334600902846A04702B0BDE816
:1031F000F08100BF38B541F6A034C2F200040546A4
:10320000084611461A460023236011F04BFEB0F128
:10321000FF3F00D038BD2368002BFBD02B6038BDAA
:1032200050EA010310B43CD0D0F1010238BF0022B3
:10323000B1F1004F14BF002302F00103002B30D185
:103240004FF6FF73A1F58010C7F6DF7301F1FE445E
:10325000984204F570048CBF002001209C428CBF72
:10326000034640F00103002B20D1B1F5801F01F18E
:1032700000402CBF00230123B0F5801F38BF43F06E
:1032800001038BB911F5801FC7F6F07314BF00203E
:103290000120994214BF014640F0010102EA0100F9
:1032A00000E0022010BC70470320FBE70420F9E790
:1032B00002460846F0B410F8015B5E2D2FD00024C2
:1032C00021460023D4540133B3F5807FFAD17DB178
:1032D00081F001045455034613F8011B2D290BD02E
:1032E0005D2907D009B9F0BC70470D461846F1E7D3
:1032F0000138F8E71846F6E74678A6F15D0CDCF1F0
:10330000000747EB0C07AE42B8BF47F00107002F9C
:10331000EBD102300135AE425455FBDCDBE7012432
:103320004D7800192146CCE70020C7F6C0707047E1
:1033300010B40346046808E014F8012F402A02DDA7
:103340005A2AD8BF2032824208D111F8010B002836
:10335000F2D1012001341C6010BC70470020FBE753
:103360002DE9F04F9BB08A4604460A9253465246D6
:1033700000200021CDF85CA0CDE904011F4613F820
:10338000010B2D2800F21481DFE810F0F900120182
:103390001201120112011201120112011201100197
:1033A000100110011001100112011201120112018D
:1033B0001201120112011201120112011201120175
:1033C0001201120112011201120112011001120167
:1033D0001201120112011201120112011201120155
:1033E00012010D0112012E0001230C9301371797D2
:1033F0003878002800F0C380302800F0DF800022F9
:1034000006922F28804640F3D885392800F3D585C9
:1034100000267B1C3546B14602E0B8F1390F1BDCB3
:1034200005EB8502B9F1080F08EB4202D8BFA2F103
:10343000300508DD06EB8602B9F10F0F08EB4208F4
:10344000D8BFA8F130069B4609F1010901339BF86A
:103450000080B8F12F0FE0DCCDF85CB02046FFF71C
:1034600001FE016820460391FFF7FCFD0068FEF7AE
:1034700067F903990246584602F090FE83460028F9
:1034800000F05B81CC46002008900990A8F165020D
:10349000534243EB0203B8F1450F08BF43F0010369
:1034A000002B61D0069A4CEA00031A4367D0DDF87E
:1034B0005CA00AF1010217929AF80180B8F12B0F73
:1034C00000F08185B8F12D0F00F0B18400210B913F
:1034D000A8F13003092B00F20985B8F1300F07D1AC
:1034E000179B0133179313F8018BB8F1300FF9D004
:1034F000A8F13103082B00F2BA851799A8F1300220
:1035000001F1010BCDF85CB00D9191F80180B8F19B
:103510002F0F14DDB8F1390F11DC8B1C02E0B8F16C
:10352000390F0CDCA8F1300117939B4613F8018B7F
:1035300002EB8202B8F12F0F01EB4202EFDC0D9B90
:1035400044F61F618A42C3EB0B0BD4BF0023012357
:10355000BBF1080FC8BF43F00103002B0CBF13469B
:103560000B460B9901B15B42BCF1000F3DD1069AAD
:10357000024340F0DE80099B002B00F09583DDF8CC
:1035800010800025059BCDF85CA00C950A9909B127
:10359000179A0A600C9A0AB103F100434046194693
:1035A0001BB0BDE8F08F00220C921FE71A46E5E63B
:1035B000002530280C9517927FF421AF7B780137D6
:1035C000582B00F09C84782B18BF3B4600F0978462
:1035D0001F46013338783028FAD0179780460028E4
:1035E00000F02183012106910BE708992846BCF1E0
:1035F000100FB4BFE0464FF01008B9F1000F14BF30
:10360000CA46E2465B1ACDF80CC0099303F06CFA87
:10361000B8F1090FDDF80CC002460B46CDE90423D2
:103620001ADD45F67833C0F6010303EBC80353E90E
:10363000122303F0CFFACDE90401304603F054FA27
:1036400002460B46DDE9040103F012F9DDF80CC077
:1036500002460B46CDE90423BCF10F0F00F3BB80FB
:10366000099B002B65D040F3CE850998162800F3FE
:103670009F8545F67831DDE90423C0F6010101EBB1
:10368000C001D1E9000103F0A5FA80460B467DE7B1
:103690000899002900F0AC8505994FF6FF72C0F239
:1036A0000F0221F07F4323F47003934200F0CB8597
:1036B000049800F001037BB10899002900F0F5831C
:1036C000DDE9060102F0DAF9DDE9062303F0D0F8BE
:1036D00002460B46CDE90423BBF1000F15D00023B1
:1036E00010931A46DDE90401C3F650121192DDE988
:1036F000102303F06FFA0B460246CDE90423059B25
:103700001BB9049808B9222323602046169901F0BA
:10371000DBFE2046394601F0D7FE2046294601F05F
:10372000D3FE20460B9901F0CFFE2046414601F022
:10373000CBFEDDF81080059B28E72046DDF85C8095
:10374000FFF790FC0068FDF7FBFF08EB0003179301
:1037500018F80080B9F1000F40F06782B8F1300F1F
:1037600018BF484608D1013348461793013013F873
:10377000018BB8F1300FF8D0A8F13103082B00F21B
:10378000E982179F4FF0000C0890A8F1300B012040
:103790000997BBF1000F00F02584089B0128034422
:1037A00008BF6046089300F013840CEB00086346E2
:1037B00008F1FF3803E04D00434500F00784013372
:1037C00005EB85015A1E082AF5DD06EB8602102B53
:1037D000D8BF5600F0E70998C8EB0C0B8344BBF147
:1037E000000F40F368841BF00F0013D045F67831CA
:1037F000DDE90423C0F60101CDF80CC001EBC001E6
:10380000D1E9000103F0E6F9DDF80CC002460B46F1
:10381000CDE904233BF00F0B40F0A482394620464B
:1038200052466346009501F0ADFE0B90DDE90401C0
:10383000CDE906010B990C310D910B9A204619AD7B
:10384000516801F00DFE0B9B0D991A69023292002E
:1038500007460C30FDF7C0FBDDE90623204618A91A
:103860000095019102F084F901211690204601F0A3
:1038700025FF099A002A0546C0F26581DDF82490EB
:10388000002219996FF47F70189B0029ACBF02EBDE
:10389000010AC1EB090CCBEB0101B8BF924601EB69
:1038A000030EA8BFCC4686450CEB0B06AEBFC3F19A
:1038B000360301F58663033303EB0A08F618B045B7
:1038C000B4BF434633465345A8BF5346002BC2BF3F
:1038D000C3EB0808C3EB0606C3EB0A0A8AB1294604
:1038E000204601F089FF169A05462046294601F038
:1038F000EFFE169903462046039301F0E5FD039B76
:103900001693B8F1000F05DD20461699424601F0E6
:10391000C5FF1690B9F1000F05D0394620464A463A
:1039200001F06AFF0746002E05DD39462046324683
:1039300001F0B4FF0746BAF1000F05DD2946204625
:10394000524601F0ABFF054616993A46204602F072
:1039500019F800222946C3688046C260089301F026
:10396000F3FF0028C0F244833FF492AE404629465C
:1039700002F062F900224FF08043CDE9060103F026
:10398000A5FB00287FD00898002800F0E0804FF0C9
:103990000009DDF814C0CA46C3F6F07900230022FE
:1039A000C3F6F073CDE9062300263346C7F6F0765A
:1039B000C7F6E0730CEA06069E4200F08380BBF176
:1039C000000318BF0123B6F1D46F8CBF002303F0AE
:1039D000010313B35046A4A3D3E90023494603F0DF
:1039E00075FBA8B15046494603F0B6FB4FF00009FD
:1039F000C3F6F079824618B103F076F8824689461C
:103A0000089909F1004301B14B465246CDE906231E
:103A1000079800F1D6639B1B0793DDE9042310464A
:103A2000194602F02BF802460B46DDE9060103F0C9
:103A3000D1F802460B46DDE9040102F019FF024607
:103A40000B46CDE90423DDF814C0CDE90601BBF136
:103A5000000F07D10023C7F6F0730CEA03039E4260
:103A600000F0AC802046169901F02EFD2046394624
:103A700001F02AFD2046294601F026FD2046414658
:103A800001F022FDD9E60023DDE90601C3F6E0736B
:103A9000002203F09FF8089B82468946002B77D1CD
:103AA00001F100430026DDF814C05246CDE906239B
:103AB0003346C7F6F076C7F6E0730CEA06069E4278
:103AC0007FF47DAFDDE90401ACF1547CCDF814C086
:103AD000DDE90423CDE910011046194601F0CEFFBF
:103AE00002460B46DDE9060103F074F802460B4678
:103AF000DDE9040102F0BCFE02460B46CDE90423D9
:103B00000023DDF814C0C7F6F0734FF6FF720CEA1D
:103B10000303C7F69F4293427CD94FF6FF73119877
:103B2000C7F6EF73984200F0A9824FF6FF724FF08C
:103B3000FF3013460490C7F6EF730593DDE90423C5
:103B4000CDE906238EE752424FF0000999E6049B27
:103B500003BBDDF814C0CCF313030BBB0023DDE97A
:103B600006010022C3F6F073CDF80CC003F0A4FAEE
:103B7000DDF80CC0002800F08780002399461A4623
:103B8000CA46CBF6E073C3F6E079CDE906230BE72E
:103B90000B4687E7012B03D10599002900F09F818F
:103BA0004FF0000900230022CBF6F073CA46CDE99E
:103BB0000623DDF814C0C3F6F079F5E64946504611
:103BC000CDF80CC003F0A0FA02F09EFF0B460246AF
:103BD0004946504602F04AFE089BDDF80CC0CDE98C
:103BE0000E0113B9049A002A2FD0DDE90E0120A39B
:103BF000D3E9002303F060FA00287FF486ADDDE905
:103C00000E011DA3D3E9002303F074FA00283FF44A
:103C100029AF7AE50CF1547CCDF814C0DDE904013C
:103C2000CDE9060113E74346B0E45846CC46CDF84B
:103C300020B0A8F1300BBBF1090F03D8179A01305F
:103C40000992A6E50121099120E4CCF31303002B8E
:103C5000CBD10BA3D3E9002303F02EFA00283FF4C5
:103C600001AF52E5AFF300800000C0FFFFFFDF416E
:103C70009535A094FFFFDF3F35E5AF350000E03F0D
:103C80009535A094FFFFCF3F00230022C3F6E073D9
:103C9000DDE9060102F09EFFDDF80CC08246894690
:103CA000024601F1004370E7A8F14908B8F1250F79
:103CB0003FF665AC01A555F828F000BF713E00083D
:103CC0007F3500087F3500087F3500087F35000804
:103CD0003F3E00087F3500087F3500087F3500082B
:103CE0007F3500087F3500087F3500087F350008E4
:103CF0007F3500087F3500087F3500087F350008D4
:103D00007F3500087F3500087F3500087F350008C3
:103D10007F3500087F3500087F3500087F350008B3
:103D20007F3500087F3500087F3500087F350008A3
:103D30007F3500087F3500087F350008713E000898
:103D40007F3500087F3500087F3500087F35000883
:103D50003F3E00084FF0000C0123CDF820C009932E
:103D6000FFF794BBBBF59A7F00F398814FEA2B16BF
:103D7000012E40F39A8245F6404B4FF00009C0F601
:103D8000010BDDE90423D846CDF810C016F0010F71
:103D9000104619464FEA660609F1010905D0D8E92F
:103DA000002302F017FF02460B46012E08F1080817
:103DB000ECDCDDF810C010461946CDE90401059988
:103DC0000BEBC909CDF80CC0A1F154710591DDE9E7
:103DD0000423D9E9000102F0FDFEDDF80CC00B461A
:103DE0000246CDE90423002305990022C7F6F073AB
:103DF000C7F6A04201EA0303934200F24F8100227A
:103E0000C7F69042934283BF4FF6FF734FF0FF31E6
:103E1000184601F1547183BFC7F6EF704FF0000BE5
:103E200005904FF0000B8CBF04910591F6E401233F
:103E30000B93531C179392F80180FFF749BB45F68B
:103E4000185117A8C0F60101FFF772FA00283FF4D5
:103E500096AB179B1B78282B00F02E820020014682
:103E6000CFF6F8710591804604900B46FFF78EBBA4
:103E700045F60C5117A8C0F60101FFF759FA0028C2
:103E80003FF47DAB179B45F6105117A8C0F6010112
:103E9000013B1793FFF74CFA10B9179B01331793A7
:103EA00000200146C7F6F071DCE7DDE906010126D6
:103EB00001F0E4FD02460B46DDE9060102F0D6FC06
:103EC00002460B46CDE904230022002303F0EAF862
:103ED00008B1089B1E4616F0FF0F7FF4FDAB0023D0
:103EE0000022CDE90423222323600EE4CDF85CA058
:103EF0000023BCF1000F7FF478ABFFF738BB0C9DBB
:103F000040F28466C2F20006204617A9324615AB7D
:103F1000019516AD009500F0F1FE10F0070805467A
:103F20003FF481AEB8F1060F02BF17974FF00008BB
:103F300043463FF42BAB169A3AB1316813A801F00F
:103F4000CDFE2046169901F0BFFA159BB8F1060F79
:103F50000BD8DFE808F02E221D1604222E006FF089
:103F600000414FF0FF320591049215F0080F3FF425
:103F7000E0AB059DDDF8108045F000430593FFF7A9
:103F800005BB002204921346C7F6F0730593ECE7D5
:103F9000139B149804930590E7E703F58663139940
:103FA000149A033322F48012049142EA03520592D8
:103FB000DBE7002105910491D7E70026BB46354693
:103FC000B146FFF74BBA00230B9332E76044013848
:103FD000082800F1010C00F32C8105EB8505002079
:103FE0000BEB450509994B1C179391F8018020E6CE
:103FF000089B002B7FF470AB049800287FF46CAB17
:10400000059AC2F31303002B7FF466ABC7F6F07377
:1040100002EA0303B3F1D66F7FF65EABD8F8143033
:1040200023B9D8F81030012B7FF756AB4146012257
:10403000204601F033FC2946804601F085FC00282B
:104040007FF74AABBBF1000F40F02181059A22F0C7
:1040500000431B0D1B05A3F580134FF0FF320492A4
:104060006FEA13536FEA03510591FFF735BB002345
:10407000BCF1000F7FF4B9AAFFF779BA1099B1F13A
:10408000FF3F7FF452AD0023002118460491C7F68C
:10409000F070223305902360FFF737BB0023002028
:1040A0001D460490C7F6F0752223059580462360CF
:1040B0002B46FFF76BBA3FF4B1ABCBF1000616F01D
:1040C0000F0213D045F67833DDE90401C0F6010391
:1040D000CDF80CC003EBC203D3E9002302F0A4FE29
:1040E000DDF80CC002460B46CDE90423361108BFAB
:1040F000B3463FF493AB1F2E53DC16F0100B18BFE2
:104100004FF06A0B002E1ADD45F64038DDE9042336
:10411000C0F60108E14616F0010F1046194605D019
:10412000D8E9002302F056FD02460B46761008F14E
:104130000808F0D1CC4610461946CDE90401BBF180
:10414000000F1DD00023059AC7F6F07302EA03039F
:104150001B0DC3F16B03002B12DD1F2B40F3BF803F
:104160000021342BC8BF4FF05C720491C8BF059288
:1041700006DCA3F120014FF0FF338B401340059381
:10418000DDE9040100220023CDF80CC002F08AFF13
:104190000126DDF80CC000B1002616F0FF0F7FF4F9
:1041A0003DAB4FF00008222243462260FFF7EEB9F4
:1041B000CCF10F06099906F1160399423FF70BABB4
:1041C00045F67834DDE90423C0F6010404EBC601AA
:1041D000D1E9000102F0FEFC099A961B04EBC6042B
:1041E000D4E9002302F0F6FC80460B46FFF7CEB977
:1041F0000598C0F31303002B7FF45AAA04990029F1
:104200007FF456AA1EE7099B13F1160FFFF6E3AAE7
:1042100045F67833099DC0F60103DDE90401A3EBFF
:10422000C503D3E9002302F0FFFD80460B46FFF7EC
:10423000ADB9BCF1100F04DC0A23002003FB06B665
:10424000D0E60020CEE60498BBF1000F1CD000237E
:10425000C7F6F07301EA0303B3F1D46F14D81B0D52
:10426000C3F16B024FF0FF33934098427FF420AAD2
:1042700000230022C7F6F073049201EA030303F55A
:1042800080130593FFF728BA4FF0FF33EDE7059849
:1042900020F000431B0D1B05B3F1D66F3FF6DBAEDC
:1042A000B3F15C7F3FF61BAA19E645F6404B4FF091
:1042B0000009C0F6010B82E517A80D4913AA00F00A
:1042C000E9FF05287FF4CAAD139D149BA84643F06F
:1042D000FE43049543F470030593FFF757B94FF07D
:1042E000FF32049812FA03F303EA0000049047E750
:1042F0009806002040F2FC030A46C2F20003014681
:104300001868FFF72DB800BF2DE9704340F2FC0498
:10431000C2F200040A46014601262068FFF720F891
:104320008946804602F038FF0021054603F026FA50
:1043300000B1002616F0FF0F0CD14046494600227E
:10434000002302F0AFFE28B9236822221A60284613
:10435000BDE870834FF6FF712846C7F67F7103F002
:1043600035FA70B14FF6FF73404649464FF0FF32C1
:10437000C7F6EF73012602F0BDFEC8B116F0FF0FBD
:10438000E2D028466FF4000103F002FA0028DED0E4
:10439000404649464FF0FF326FF48013012602F089
:1043A0008BFE50B116F0FF0FCED02846BDE87083CB
:1043B000002616F0FF0FC7D0E3E7002616F0FF0F28
:1043C000C2D0F2E7AFF300802DE9F04F40F2006475
:1043D000C2F2000485B01F468C4626680B46039047
:1043E000029213F8014B32191D4692F801B01BF0EE
:1043F000080BF6D12D2C73D02B2C08BF15F8014BD0
:10440000D7F1010338BF0023102F14BF1A4643F021
:10441000010232B1302C73D01BB1302C00F08380FC
:104420000A27B946BBF1000F49460CBF6FF0004A9E
:104430004FF0004ACDF804C0504602F0ABF85046A9
:104440008846494601F078FF33190022DDF804C0A0
:104450005B78114613F0040F1ED0303CA74225DDD7
:10446000814294BF0023012353EAD2722ED10A1A4B
:10447000534243EB02034445D4BF002303F001033E
:10448000002B23D109FB014115F8014B01223319FF
:104490005B7813F0040FE0D113F0030306D0012B77
:1044A00014BF57233723E41AA742D9DCB2F1FF3FE8
:1044B0001BD00846BBF1000F10D1029B1BB152B9B3
:1044C0000299C1F800C005B0BDE8F08F4FF0FF328F
:1044D00015F8014BDBE705F1FF3CF1E74842ECE75B
:1044E00015F8014B4FF0010B8AE70399BBF1000F60
:1044F0000CBF6FF000404FF0004022230B60DCE760
:104500002A78A2F17800414241EB0001582A14BFF9
:104510000A4641F00102002A3FF47EAF10276C7872
:10452000B94602357EE70827B9467BE730B440F24A
:10453000FC04C2F200040D46134601462A462068D8
:1045400030BC41E72DE9F04F40F20064C2F20004B4
:1045500087B01F468B4626680B460590049213F8D9
:10456000014B32191D46527812F00802F7D12D2C5A
:1045700000F09D802B2C08BF15F8014B0392D7F15A
:10458000010338BF0023102F14BF1A4643F0010265
:1045900072B1302C00F09D80002B00F0B680302CE2
:1045A00000F0AD800A2000210A27CDE9000103E0D8
:1045B0003A46FB17CDE9002303994FF000084FF06E
:1045C000004919B94FF0FF386FF00049404649469D
:1045D000DDE9002303F040F9404649469246DDE913
:1045E000002303F039F9002200234FF0000C894624
:1045F00031198046497811F0040F30D0303CA74281
:1046000037DD904579EB03002CBF0021012151EAF1
:10461000DC7C40D183EA090182EA080050EA010CFF
:1046200014BF002101215445D4BF002101F0010134
:10463000002930D101984FF0010C02FB00F10098E5
:1046400000FB0311A2FB0023CB18121943EBE47308
:1046500015F8014B3119497811F0040FCED111F042
:10466000030106D0012914BF57213721641AA7423C
:10467000C7DCBCF1FF3F1FD00399A1B9049828B152
:10468000BCF1000F0CD10499C1F800B010461946D6
:1046900007B0BDE8F08F4FF0FF3C15F8014BD9E7AC
:1046A00005F1FF3BEFE7524263EB4303E6E715F802
:1046B000014B0120039062E703994FF0FF326FF046
:1046C000004311B100224FF0004305982221016000
:1046D000D4E72A78A2F17800414241EB0001582A40
:1046E00014BF0A4641F00102002A3FF455AF6C782E
:1046F000102200230235CDE9002310275CE70822B1
:1047000000230827CDE9002356E73846F917CDE9FD
:10471000000151E72DE9F04F40F20066C2F20006B9
:1047200083B09A460C46D6F8008015460B46019099
:1047300013F8016B08EB06021F4692F801B01BF05C
:10474000080BF5D12D2E74D02B2E08BF17F8016B56
:10475000DAF1010338BF0023BAF1100F14BF1A4673
:1047600043F001026AB1302E68D053B1302E7BD0B5
:1047700049F699194FF00A0A0521C1F69919D4464C
:104780000BE051464FF0FF3001F0D6FD5146814617
:104790004FF0FF3001F0FEFED44608EB0603002286
:1047A00010465B7813F0040F1FD0303EB24526DD73
:1047B000484594BF0023012353EAD2722BD1C9EBA1
:1047C0000002534243EB02038E42D4BF002303F0A6
:1047D000010303BB0CFB006017F8016B012208EB1F
:1047E00006035B7813F0040FDFD113F0030306D048
:1047F000012B14BF57233723F61AB245D8DCB2F188
:10480000FF3F11D0BBF1000F0CD10DB142B92C60AC
:1048100003B0BDE8F08F4FF0FF3217F8016BDEE711
:104820007C1EF4E74042F0E70199222310460B601A
:10483000EBE717F8016B4FF0010B89E73A78A2F12B
:104840007800414241EB0001582A14BF0A4641F06A
:104850000102002A89D04FF0100A7E780F2102371A
:104860006FF07049D44698E74FF0080A07216FF0BF
:104870006049D44691E700BF30B440F2FC04C2F274
:1048800000040D46134601462A46206830BC41E725
:104890002DE9F04F40F20064C2F2000487B01F46D9
:1048A0000B46266802910590039213F8014B3219CA
:1048B0001D46527812F00802F7D12D2C00F09F808F
:1048C0002B2C08BF15F8014B0492D7F1010338BF18
:1048D0000023102F14BF1A4643F0010292B1302C6E
:1048E00000F0928073B1302C00F0AA800FF26819AA
:1048F000D9E900894FF0050C4FF00A0A4FF0000B80
:104900000A2715E04FEAE77B3A465B464FF0FF3057
:104910004FF0FF31BA4602F09FFF3A465B468046B1
:1049200089464FF0FF304FF0FF3102F095FF94467B
:104930003019CDF804C0002100224078002310F087
:10494000040F2ED0303CA74235DD904579EB030CA7
:104950002CBF0020012050EAD1713CD182EA08002E
:1049600083EA090150EA010C019814BF00210121DA
:104970008442D4BF002101F0010100292BD102FBA8
:104980000BF001210AFB0300A2FB0A23C318121932
:1049900043EBE47315F8014B3019407810F0040F25
:1049A000D0D110F0030006D0012814BF57203720C3
:1049B000241AA742C9DCB1F1FF3F18D0049890B97E
:1049C000039C1CB161B9029803990860104619460E
:1049D00007B0BDE8F08F4FF0FF3115F8014BDBE772
:1049E000013D0295EFE7524263EB4303E8E7059C84
:1049F00022204FF0FF324FF0FF332060E0E715F840
:104A0000014B0120049060E72A78A2F1780041422E
:104A100041EB0001582A14BF0A4641F00102002A66
:104A20003FF460AF6C784FF00F0C02354FF0FF3859
:104A30006FF070494FF0100A4FF0000B102777E726
:104A40004FF0070C4FF0FF386FF060494FF0080A45
:104A50004FF0000B08276BE7999999999999991943
:104A600001F144032DE9F0410C46496B994218D0FD
:104A7000A66B77003A4601F083F9054668B100EB72
:104A80000608014632464046FCF7A6FAC4F8008004
:104A900065630020A763BDE8F0814FF0FF30BDE8FB
:104AA000F0814FF48061FBF795FF0246B0B194F8B6
:104AB000461000F57E7360634FF48060A063053399
:104AC00082F8FF13002094F8451082F8FE1394F842
:104AD000441082F8FD132360BDE8F0814FF0FF30F1
:104AE000BDE8F081B1F1FF3F70B50C4605461646B2
:104AF0003CD010B18369002B3AD045F6B013C0F614
:104B000001039E4208BF6E680ED045F6D013C0F672
:104B100001039E4208BFAE6806D045F6F013C0F60A
:104B200001039E4208BFEE68B28912F4005F01BF24
:104B300042F40052736E23F4005373664FF6DF7332
:104B400002EA0303B3819AB212F0040F33D0736BFD
:104B5000E4B283B17268B36B9A4236DA33685A1E94
:104B6000326003F8014C736801337360204670BDF6
:104B7000FBF73AFBC1E73369002B2FD03268934231
:104B800004D212F8013C511EA3420FD07068334684
:104B900006F14401F26303F8464F032230642046D5
:104BA000336001237163B263736070BD73683160F9
:104BB00001337360DAE712F0100F0CD012F0080F17
:104BC0000ED143F00403B381C1E728463146FFF715
:104BD00047FF0028C2D04FF0FF34C7E73268D5E75F
:104BE00028463146FDF7A2FE0028F4D1B389B06013
:104BF00023F00803B0611B041B0CE2E740F2FC0346
:104C00000A46C2F20003014618686BE72DE9F0017D
:104C10004A11046900F114073B46A24226DA043225
:104C200000EB8404143411F01F0100EB820202F146
:104C3000040C23D055680CF10402C1F12008CD40CA
:104C4000944211D9166806FA08F6354343F8045B16
:104C500052F8045BCD409442F4D8CCEB0403053BFE
:104C600023F00303C31818331D60CDB9DB1B9B1061
:104C7000036103B94361BDE8F0017047644588BF33
:104C80006246F3D952F8041B944243F8041BF9D846
:104C90006FEA0C031B1923F00303C3181833E5E76D
:104CA0000433E3E745F62C5041F6A431C0F6010089
:104CB00010223023C2F20001CA54013210F8013F21
:104CC000D2B2002BF8D145F624501A22C0F60100CA
:104CD0006123CA54013210F8013FD2B2002BF8D13F
:104CE00045F61C501A22C0F601004123CA54013275
:104CF00010F8013FD2B2002BF8D170472DE9F04FE8
:104D00008BB041F6A4370391C2F2000706920993D3
:104D10000890FEF7A7F900680490FCF711FD0499CC
:104D200097F830300A18834612F801AC002B00F0D7
:104D30002E81039A13689E1C9A78302A40F02282B2
:104D4000033300251E4613F8012B0135302AF9D014
:104D500017F8029041F6A438C2F20008B9F1000F2A
:104D600000F0188133784FF0000918F8033034460A
:104D700033B1721C144601322378FB5C002BF9D14D
:104D80000793204604995A4601F008FAD0B1B9F1C8
:104D9000000F2DD0C4EB090923784FEA8902059250
:104DA000502B2AD0702B28D003992046079A0860F0
:104DB000002A5ED0002D0CBF0625002528460BB02A
:104DC000BDE8F08FB9F1000FE4D114F80B3004EB1B
:104DD0000B09FB5C002B00F04E8209F101031C461D
:104DE00001332278BA5C002AF9D1B9F1000FD1D190
:104DF0002378CDF81490502BD4D16378611C2B2BE1
:104E000000F0C0802D2B08BF4FF0010900F0BC80DE
:104E10004FF00009FA5C41F6A433C2F20003002A05
:104E2000C2D0192AC0DC91F801C0103A481C13F80E
:104E30000C3093B1192B10DC023101E0192B0CDC82
:104E4000084611F8018BA3F1100C02EB820217F84F
:104E500008300CEB4202002BF0D1B9F1000F00D06A
:104E60005242059B03999B18079A05930860002AF4
:104E7000A0D1631E9B1B072BD8BF079904DD0799A0
:104E80005B100131072BFBDC089800F0E9FAA64221
:104E900000F114038446039380F09F814FF00008D3
:104EA0001A46B9465B464546474693460FE0202DD5
:104EB0002A4605F104055FD0217819F8011001F0A8
:104EC0000F0111FA02F2A64247EA020718D214F8BB
:104ED000012D5245EBD1C3F10108A0444645E6D867
:104EE0001A46404604990293CDF804C001F056F9E1
:104EF000029BDDF804C00028D9D14446A642E6D37F
:104F0000B8465B460399404643F8048B5B1A9D10F4
:104F1000CCF81050CDF804C000F07EFB069A6D016D
:104F2000DDF804C014682D1AA54200F3EF80C0F22A
:104F30001A8100260699059A8B689A4200F3C88068
:104F4000069A05995368994280F2D2805D1AAC4264
:104F500043DCD268022A00F02E81032A00F05D8132
:104F6000012A00F047816146089800F0ADFA1499D3
:104F7000002350250B6021E74BF8047B00273A46BD
:104F8000042599E74FF0000911F8013F42E7FFF7C8
:104F900089FECEE6304604995A4601F0FFF8002813
:104FA00040F09F8016F80B3006EB0B0418F8032036
:104FB000002A00F0E980302B40F0F780631C1E4689
:104FC00013F8012B302AFAD0BB5C002B40F0EE80A6
:104FD000A146012534460795D3E66F1E002E00F04A
:104FE000D7800126039A7B1107F01F0760462946E8
:104FF000641B52F823300122CDF804C0BA401A4293
:1050000018BF46F00206FFF701FE069B0225DDF8F9
:1050100004C05B680593002E71D00699CB68022B03
:1050200000F0DF80032B65D0012B66D116F0020F54
:1050300063D0039A13681E4316F0010F5DD0DCF8AD
:1050400010700020039B0CEB870114311E4653F8AF
:10505000042BB2F1FF3F40F0EC80994243F8040C7E
:10506000F4D8DCF808309F42B8BF3B4680F2E480B9
:105070000CEB83020133CCF8103001235361022D75
:1050800000F0D080DCF810309F4211DB14F01F04D8
:1050900000F0A1800CEB8707C4F120043869CDF83B
:1050A00004C000F0B9FADDF804C0A04280F2938099
:1050B00001216046CDF804C0FFF7A8FD0699059AC6
:1050C000DDF804C08B68013205929A4240F3838078
:1050D0006146089800F0F8F914990023A3250B60A5
:1050E0006CE6337801213446CDF81490079157E6E9
:1050F000012590E7159B002BA1D145F01005149BCD
:105100000599099AC3F800C0116057E62D1B604647
:10511000294600F007FEDDF804C00646B8B1691E56
:10512000012601F01F024B1116FA02F20CEB830369
:105130005B691A420BD0B1425ADD6046A91E00F0ED
:10514000F1FDDDF804C0002814BF032602266046E6
:105150002946CDF804C0FFF759FD059BDDF804C0D2
:105160005B190593E6E6651B61462A46089800F040
:1051700095FB05990026491B059100F11402844610
:105180000392D7E60025E3E501210592079107E6A2
:10519000002F7FF727AF60463946CDF804C000F0F6
:1051A000C1FDDDF804C006461CE726463378A1465B
:1051B0000125FB5CDBE5159900297FF4D4AE099944
:1051C0006225039A0B600123CCF810301360149B06
:1051D000C3F800C0F2E5212591E7039B4FF00008DA
:1051E00090E61599C1F10103002B7FF428AF84E705
:1051F0000226ACE7A5427FF4B6AE012CDFDD6046A7
:10520000611ECDF804C000F08DFDDDF804C000285B
:105210003FF4A9AE069A5368D1E7159A002A3FF4E5
:10522000A2AECCE7069A1368013BA34225D0222503
:1052300065E70132326022E7DCF80410089801319A
:10524000CDF804C000F00CF9DDF804C00CF10C013D
:10525000DCF810200232920006460C30FBF7BCFE50
:10526000DDF804C008986146019600F02DF9336915
:10527000DDF804C0FCE64C4689E56311012204F028
:105280001F040CEB8303A2405B691A4214BF212563
:10529000222534E72DE9F04F41F6A434C2F2000490
:1052A00085B00D46924694F830300290002B00F005
:1052B000B6802A680298531112F01F0201680AEBA7
:1052C0008303039218BF04330022181F9146013153
:1052D0008046064693461746019043F8042C08463C
:1052E00011F8013B002B38D0E25C002A7AD1202B48
:1052F00000F28F805F45F2DD46452CBF002301237D
:10530000B9F1070FCCBF002303F00103ABB1C9F122
:10531000080C3068324633464FEA8C0CCCF1200939
:10532000556805FA09F5284342F8040B586820FA35
:105330000CF043F8040F9845F2D8564598BF4FF04B
:105340000809CCD90022084646F8042DBB4611F8BE
:10535000013BB0469146002BC6D1002F5BD0B04533
:1053600094BF00230123B9F1070FCCBF002303F042
:105370000103A3B1C9F108093168324633464FEA47
:105380008909C9F1200054688440214342F8041B74
:10539000596821FA09F143F8041F9845F3D8B2453A
:1053A00040D20198524656F8041B1346B04243F8C7
:1053B000041B1A46F7D20199002243F8042B9942A4
:1053C000FBD2019803685BB9019A924518BF134656
:1053D00002D136E09A4535D053F8042D002AF9D091
:1053E000052019E009F101090137B9F1080F07DCBF
:1053F00033681B0102F00F0243EA020232606EE7DB
:1054000056457FF66CAF00234FF0010946F8043D86
:10541000F0E7292B1DD0042005B0BDE8F08FFFF781
:1054200041FC46E7039989B103990198C1F1200233
:105430004FF0FF31036831FA02F202EA030303601E
:10544000C1E75346012205201A60E5E7019A136877
:10545000B9E7029B01301860002F80D1DBE700BF65
:1054600070B50646446A0D465CB1E3689BB153F8DB
:105470002500E0B1026843F8252000230361C360E2
:1054800070BD1020FBF796FA00230446706243605B
:1054900083600360C36030460421212200F0CEFE09
:1054A000736AE060DB68002BE1D1184670BD01240F
:1054B00030462146AC40621D920000F0BFFE00283D
:1054C000F4D045608460D8E730B50446456A83B0BF
:1054D00055B139B1636A4A68DB6853F82200086045
:1054E00043F8221003B030BD10200191FBF762FA9F
:1054F00001996062456085600560C560E9E700BFAD
:105500002DE9F0410C4605460E6901F1140082B008
:105510000021076801311FFA87FC3F0C0CFB0233A6
:1055200007FB02F707EB13471FFA83FC3B0C8E4285
:105530004FEA074808EB0C0740F8047BE9DC3BB175
:10554000A268964208DA04EB8602013626615361AE
:10555000204602B0BDE8F081616828460193013120
:10556000FFF77EFF226904F10C0102329200074628
:105570000C30FBF731FD214628463C46FFF7A4FFDF
:10558000019BE0E72DE9F84348F639641E46C3F66F
:10559000E304083388460546174684FB0314DB17EB
:1055A000C3EB6403012B34DD0122002152000131E1
:1055B0009342FBDC2846FFF753FF089B436101231E
:1055C000092F0146036120DD08F10909092418F8B3
:1055D00004300A2228460134303BFFF791FFA742EE
:1055E0000146F4DC09EB0708A8F1080808E018F800
:1055F000013B28460A220137303BFFF781FF014675
:10560000BE42F4DC0846BDE8F88308F10A08092721
:10561000F6E70021CEE700BF020C034619D10304D0
:10562000102013F07F4F01D108301B0213F0704F90
:1056300001D104301B0113F0404F01D102309B0017
:10564000002B05DB13F0804F01D001307047202084
:1056500070470020E5E700BF0368024613F007002B
:1056600009D013F0010F21D113F0020F22D19B08B2
:1056700002201360704799B209B91B0C102013F077
:10568000FF0F01D108301B0A13F00F0F01D10430B6
:105690001B0913F0030F01D102309B0813F0010F17
:1056A00002D15B0804D001301360704700207047BE
:1056B000202070475B0801201360704710B50C462E
:1056C0000121FFF7CDFE01224461026110BD00BF40
:1056D0002DE9F04F0D460F6985B016699046B74227
:1056E00004DA3A464546374688461646AB68F4190A
:1056F00069689C42C8BF0131FFF7B2FE00EB84032A
:1057000000F1140C143301909C45029306D20299C7
:105710006346002243F8042B9942FBD808EB860627
:1057200005EB870708F11408143614351437B04513
:1057300000954DD2039458F8044BA0B2F0B1009AF2
:105740006346002452F8045B19681FFA85FA2D0C91
:105750001FFA81F9090C00FB0A9900FB0511A1440D
:1057600001EB19411FFA89F90C0C974249EA0145EE
:1057700043F8045BE6D81C6058F8044C240C21D094
:10578000DCF800206046009BE14611460025B3F896
:1057900000A01FFA82FB0AFB045505EB11454BEAFA
:1057A000054240F8042B53F8042B59F8041F120C3F
:1057B0001FFA81FA02FB04A202EB1542150C9F426C
:1057C000E5D80260464502D90CF1040CB3E7039C0E
:1057D000002C0BDD02990B1F51F8042C1AB105E0C7
:1057E00053F8042D12B9013C002CF9DC019A104643
:1057F000146105B0BDE8F08F12F003032DE9F0410C
:1058000015460446884628D1AD101AD0666A002E87
:105810002FD0B7682FB936E06D1012D03E689EB118
:10582000374615F0010FF7D041463A462046FFF7BC
:105830004FFF414606462046FFF746FE6D10B04634
:10584000ECD14046BDE8F08139463A462046FFF7A4
:105850003FFF386007460660E3E745F668325E1EA4
:10586000C0F60102002352F82620FFF749FE8046C9
:10587000CAE71020FBF79EF80023064660624360EB
:1058800083600360C360204640F27121FFF716FF7A
:105890000023B06007460360C3E700BF2DE9F8436B
:1058A00056110D690C468B68904601358146AD193D
:1058B00049689D4203DD5B0001319D42FBDC4846A7
:1058C000FFF7CEFD002E074600F114020ADD00238B
:1058D0001946013342F8041BB342FAD107EB8303A4
:1058E00003F11402266904F1140104EB8606143650
:1058F00018F01F081AD0C8F1200E00200B6803FA18
:1059000008F3184342F8040B51F8040B8E4220FAB6
:105910000EF0F3D8106000B101354846013D214634
:105920003D61FFF7D1FD3846BDE8F88351F8043BEF
:105930008E4242F8043BF0D951F8043B8E4242F8C3
:10594000043BF3D8E9E700BF03460A69006930B4B5
:10595000801A0FD1043203F1140592009B188918A4
:105960000433043153F8044D51F8042D944203D10B
:105970009D42F7D330BC704738BF4FF0FF30F9D3AA
:105980000120F7E72DE9F84F8946044611464846BD
:105990009046FFF7D9FF051E64D0BCBF4B46C146F9
:1059A0002046B8BF9846D9F80410ACBF4FF0000AA3
:1059B0004FF0010AFFF754FDD9F8106009F1140502
:1059C000D8F8103008F11407002409EB860909F112
:1059D000140983461430CBF80CA008EB830A0AF1B3
:1059E000140A55F8041B034657F8040B2A461FFAFD
:1059F00081F81FFA80FC000CCCEB080CC0EB1140C6
:105A0000644400EB2440A4B244EA00410414BA45C3
:105A100043F8041B1846E4D8A9451F4614D952F888
:105A2000041B88B2090C241801EB2441A4B244EAF7
:105A300001400C14914543F8040BF0D8EB434B4460
:105A400023F003030433FB1853F8042C043B22B95E
:105A500053F8042D013E002AFAD0CBF810605846C6
:105A6000BDE8F88F20462946FFF7FAFC012383465C
:105A7000456103615846BDE8F88F00BF0023C7F6B3
:105A8000F07301EA0303A3F15073002B02DD194602
:105A9000002070475B421B15132B0DDD143B0021CA
:105AA0001E2B02DD0123184670470122C3F11F039C
:105AB00012FA03F3184670474FF40022002052FAFE
:105AC00003F170472DE9F04100F1140604690F4617
:105AD000043450F8245000EB8404A0462846FFF715
